:020000040000FA
:0400000046EF3FF098
:107E8C00000149EF3FF0000E046E000E036E0F0E62
:107E9C00C16E000E936E938E010E0324036E000EC2
:107EAC000420046E070E03180410D8A460EF3FF0F2
:107EBC0062EF3FF066EF3FF0000E046E010E036EB2
:107ECC0081BE6BEF3FF06DEF3FF052EF3FF003C020
:107EDC0001F004C002F077EC3FF052EF3FF000EFFE
:107EEC0000F0000E8A6E01500210D8A480EF3FF013
:107EFC0082EF3FF084EF3FF03F0E8A6E01040210D8
:107F0C00D8A48BEF3FF08DEF3FF08FEF3FF0060ED4
:107F1C008A6E020E01180210D8A497EF3FF099EF69
:107F2C003FF09BEF3FF05B0E8A6E030E01180210C0
:107F3C00D8A4A3EF3FF0A5EF3FF0A7EF3FF04F0E13
:107F4C008A6E040E01180210D8A4AFEF3FF0B1EF07
:107F5C003FF0B3EF3FF0660E8A6E050E011802106B
:107F6C00D8A4BBEF3FF0BDEF3FF0BFEF3FF06D0E7D
:107F7C008A6E060E01180210D8A4C7EF3FF0C9EFA5
:107F8C003FF0CBEF3FF07D0E8A6E070E011802100A
:107F9C00D8A4D3EF3FF0D5EF3FF0D7EF3FF0070E6B
:107FAC008A6E080E01180210D8A4DFEF3FF0E1EF43
:107FBC003FF0E3EF3FF07F0E8A6E090E01180210BE
:107FCC00D8A4EBEF3FF0EDEF3FF0EFEF3FF0670E93
:107FDC008A6E02BEFBEF3FF0025009E10A0E015C13
:107FEC00D8A0FBEF3FF0FDEF3FF0FFEF3FF0710E3D
:047FFC008A6E120077
:020000040020DA
:08000000FFFFFFFFFFFFFFFF00
:020000040030CA
:0E000000040E1F1FFF8381FF0FC00FE00F4093
:00000001FF
